:020000041000EA
:10000000002008205D0100101B0100101D010010E0
:100010001101001011010010110100101101001058
:100020001901001019010010190100101F01001022
:10003000110100101901001021010010230100100E
:100040001101001011010010110100101101001028
:100050001101001011010010110100101101001018
:100060001101001011010010110100101101001008
:1000700011010010110100101101001011010010F8
:1000800011010010110100101101001011010010E8
:1000900011010010110100101101001011010010D8
:1000A00011010010110100101101001011010010C8
:1000B00011010010110100101101001011010010B8
:1000C00011010010110100101101001011010010A8
:1000D0001101001011010010110100101101001098
:1000E0001101001011010010110100101101001088
:1000F0001101001011010010110100101101001078
:100100001101001011010010110100101101001067
:10011000EFF30580103800BE00BE00BE00BE00BE7A
:1001200000BE00BEF2EB88717C0B0110A40B011025
:10013000A001001090A31AE7D3DEFFFF42012110B7
:10014000FF010000F0160100793512AB4FF00000FE
:100150001E49086006C881F3088810474FF05040D8
:10016000006810B14FF00000F2E70DA40ECC00299A
:1001700002D000F012F8F9E71549164A002000E015
:1001800001C19142FCD11449884714498847144958
:10019000884700BEFDE701C901C29A42FBD3704700
:1001A000A40B011010010020940D0020281801104C
:1001B0000000082000000820281801100010082066
:1001C00000100820000000007047000008ED00E06B
:1001D000940D002050110020A9380010F5060010E1
:1001E0006D380010F8B500BF064B0749C91A8910D1
:1001F00048BF0131491003D0044B0BB101481847E7
:10020000704700BF940D0020940D002000000000F6
:1002100008B5054B1BB105490548AFF30080BDE8A3
:100220000840FFF7E1BF00BF00000000F810002009
:10023000A899001038B50421082000F0C3FA002561
:1002400043F2D4030420094A09490A4C0860256096
:100250001366D36D084983F4C35383F00A039BB23A
:10026000CB65136D03F001030B6538BD00800A40B8
:10027000341100203011002000900A402DE9F04395
:100280000C4689B005AB009381469A49204604ABE1
:1002900003AA04F045FA032800F0EF80DFF8848217
:1002A00001F04CF9944AC3B2A2FB031202F0F00130
:1002B000A1EB1212A3EB420303F10A0001F04CF888
:1002C0004FF050435E685B68C6F3003698024FF00B
:1002D00050435B6848BF46F0020619034FF0504395
:1002E0005B6848BF46F004069A034FF050435C68D1
:1002F0005B6848BF46F008065B024FF050435B68FE
:10030000C4F3403448BF44F00204DF024FF05043CE
:100310005B6848BF44F00404DD034FF050435D6860
:100320005B6848BF44F0080418024FF050435B6814
:10033000C5F3803548BF45F00205D9014FF0504361
:100340004FF000075B6869F3070748BF45F00405F5
:1003500066F30F275A0348BF45F0080564F31747B3
:1003600065F31F6701F0EAF800294DD04FF47A7267
:10037000002309F0E5FA614B98F800201B6803EBB5
:1003800083039B001AB95E4A1268002A41D103F127
:10039000804303F52822126803F5292302F00102A5
:1003A0001A604FF2F011CDF81A7002234FF00102DB
:1003B000ADF8181042EC4030012000F0CDFF0120D4
:1003C00000F0CAFF4F4C06AD0DF11E0615F8012BCB
:1003D000A3699B06FCD4AE42226004D064200021B5
:1003E00000F04EFFF2E7474A946914F00804FBD18D
:1003F000022000F0B1FF022344EC4030012000F065
:10040000ABFF09B0BDE8F0833F4AA2FB00208009A2
:10041000B1E7801A44F620629042B8D924EA060473
:1004200085F00F052542B2D0384A1278002AAED0A6
:10043000102547F611243648364A006803F18041FA
:1004400001F528214D601A440C6100284ED143F675
:1004500008554FF6FF74116803F180406940214050
:1004600002F58052116000F528231B6800F5292051
:10047000DB4303F00103036093E7DDE90423A2F10A
:100480000102A3F10103B2FA82F2B3FA83F3DFF8B7
:1004900094801E4952095B0988F800200B7001F016
:1004A0004DF879B9184A98F80010A2FB00231A4AAF
:1004B0009B09107891B900283FF4F2AE1170104AF0
:1004C0001360EDE64FF47A72002309F039FA124A0C
:1004D00098F80010034610780029ECD000287FF42B
:1004E000DFAE0123064913700860D9E60B4D0C4CB2
:1004F000B1E700BFA89900108988888834110020CE
:10050000DC10002000000740D34D62104806002098
:10051000301100200C800A40490600200000083DF0
:100520000000FFFF4C1100202DE9F04F4FF00003B9
:1005300002248DB043EC4040012000F00DFF4FF04D
:1005400050435A68570540F1BC805A68960540F1FF
:10055000BA805A68150640F1B8805A68140740F10D
:10056000BA805A68D00640F1B4805A68910640F1CA
:10057000AE805B6813F0400F14BF00220722574C77
:10058000019200F0DBFF002900F084804FF47A72C2
:10059000002309F0D5F9054647F22F52504B1B684E
:1005A000EB1A93427BD8A76917F010076AD1202273
:1005B000394604A804F060F900F0C0FFBB460546C8
:1005C0003E46B9468846DFF828A1009700F0B6FFFE
:1005D000401B61EB0801824579EB01013DDBA3691A
:1005E000DB0608D5BBF1000F28D13220002100F036
:1005F00047FE3746EAE7A369D806FCD423686F4470
:100600005FFA83FB87F810B000F098FF401B61EBA6
:1006100008014FF47A72002309F09AF90136BBF110
:100620000A0FF6B2009018D03220002100F028FE08
:100630001F2E374611D04FF0010BC7E700F07EFFA9
:10064000401B4FF0000361EB08014FF47A7209F090
:100650007FF9009BC01A0528C7D900236E44337464
:10066000A369D90606D4A369DA06FCD42368A36972
:10067000DB06F8D51B490DF10F0204A804F050F871
:10068000012812D0052000F067FE00F057FF002976
:100690007FF47CAF144AA2FB00239D097CE713483A
:1006A00003F03CFA0E4B1D607DE7019A002AE9D069
:1006B0009DF80F309342E5D1104604A9FFF7DEFD07
:1006C000E0E701225BE7224659E7032257E70622CB
:1006D00055E7052253E7042251E700BF0000074019
:1006E000F0100020D4990010D34D6210B89900107A
:1006F0009F8601002DE9F84303F0FEFA4FF41651EE
:100700002B4800F065FF0221002000F05BF8022179
:10071000012000F057F8022000F086F802234FF085
:10072000010242EC44304FF00006224DDFF8908089
:10073000214F05F1100955F8044B204600F074F8DC
:1007400046EC444000220121204600F059F858F8B8
:10075000044B204600F068F846EC4440002201219A
:10076000204600F04DF857F8044B204600F05CF8A6
:1007700046EC444000220121204600F041F84D455E
:10078000D9D14FF000070D4D05F11C0655F8044F67
:10079000204600F049F847EC444000220121204661
:1007A00000F02EF8B542F1D1FFF744FDFFF7BCFE93
:1007B000000007406C9C00105C9C00103C9C0010EA
:1007C0007C9C001010B44FF480740C4B53F8202024
:1007D00003EB8003C00082F0400200F1804003F58B
:1007E000805C02F0C00200F5203003F54053CCF8E5
:1007F000002041601C605DF8044B7047048003409A
:1008000010B4084CC90041EA820154F8202004EBDE
:100810008003514003F5805301F00C015DF8044B57
:10082000196070470480034030B44FF0000343EC7C
:10083000440043EC400005254FF480740B4BC2008C
:1008400053F8201003EB800081F0400102F1804357
:1008500003F5203301F0C00200F5805100F540504F
:100860000A605D60046030BC704700BF04800340D4
:100870000FB400B583B0049C074803F04FF93CB1B6
:1008800005A92046019102F0C1FF044803F046F992
:10089000012002F0D3FF00BFE0990010F099001092
:1008A00070B58646EFF3108572B6124CD4E8CF6F60
:1008B0000120002EFAD1C4E8460F002EF6D1BFF376
:1008C0005F8F4FF0010CC80801F007030CFA03F327
:1008D0001EF800C01CEA030608D14CEA030C0EF80F
:1008E00000C0C4E88F6F85F3108870BD1046FFF715
:1008F000BFFF00BF93100020044A1078431CDBB2F6
:10090000182B28BF10231370704700BF4A06002021
:100910004FF0E022936843F000539360704700BFAC
:100920000021044B03F12002C3E88F1F01339342DF
:10093000FAD17047881000204FF0E0234FF080324A
:10094000C3F80024C3F80424C3F80824C3F80C2413
:10095000C3F81024C3F81424C3F81824C3F81C24C3
:10096000C3F82024C3F82424C3F82824C3F82C2473
:10097000C3F8302462B67047012300F01F02934091
:10098000400941B1800000F1604000F56140C0F8CD
:10099000803103607047024A203042F820307047AF
:1009A00000E100E0F8B50D46EFF3108772B6124E85
:1009B000D6E8CF2F0123002AFAD1C6E8423F002A09
:1009C000F6D1BFF35F8F0D4B00F110049B680C4A0A
:1009D00053F82430934203D0994201D000F078FFBD
:1009E000064B9B6843F82450BFF35F8F0023C6E893
:1009F0008F3F87F31088F8BD9110002000ED00E0D4
:100A0000110100102DE9F04F83B0EFF3108A72B698
:100A1000714ED6E8CF2F0123002AFAD1C6E8423F13
:100A2000002AF6D1BFF35F8F6C4B00F110089B6872
:100A30006B4A53F82850954245D08D420C4650D011
:100A4000684FEB1B2F2B3ED801214FEA50194FEA7C
:100A5000890909F1604909F5614900F01F0301FAAC
:100A600003F0D9F80030C9F8800000EA030BBFF3A7
:100A70005F8FEFF30581C9B2002934D0884505D0D6
:100A8000CDE9001000F024FFDDE9001025F0010E93
:100A9000DEF808C0644505D189E0D3F808C0644594
:100AA00031D09E469EF9062002EB4203002A07EB56
:100AB0008303F2DA644561D0BBF1000F20D0C9F89E
:100AC0008001C9F80000454B9B6843F82850BFF3EC
:100AD0005F8F0023C6E88F3F8AF3108803B0BDE81C
:100AE000F08F1546EFE725F0010EDEF808C06445EB
:100AF000D8D19EF906407346002C08DA154646E028
:100B0000C9F88000DFE793F90640002C37DB04EBDF
:100B1000440C07EB8C0C9CF80710DCF80820D9710A
:100B20009A609CF906206100002A9A713DDBBCF8AE
:100B300004E05FEA4E5E05D50EF5FF1E0EF5FF5E82
:100B40000EF11F0E6FF0070C0A194FEA6E5E92004D
:100B500002EB4E0208323A44ACEB030C6244C2F39F
:100B60004A026FEAC2426FEAD2429A801E4B214487
:100B70001A7807EB81011C708A719DE77346D9B919
:100B8000FF228EF806204BF60152AEF80420164CD8
:100B90004AF6AA2294F800C01946C91B49414A43A3
:100BA000120D83F806C0227086E7104ADDE79EF931
:100BB00006407346002CAADA0D4A0E4CD21A083AA7
:100BC000C2F30A316FEA01516FEA115144EA52024D
:100BD000DA80998070E700BF9110002000ED00E0FE
:100BE000110100104C0600204D11002001BDFFFF37
:100BF0008606002000F8FFFFF0B5EFF30585EDB2A3
:100C0000EFF3108C72B62649D1E8CF2F0123002ACA
:100C1000FAD1C1E8423F002AF6D1BFF35F8F214EDF
:100C200040F0010EB4684AF6AA2354F825701E4A13
:100C30000446A41A644163431B0D77455BB21BD085
:100C400092F906409C421CD092F912409C4223D05B
:100C500092F91E409C4221D092F92A409C4208BF42
:100C600003240FD0114A0024157813708571C1E850
:100C70008F4F8CF31088F0BDB2680D4C42F82540C0
:100C8000F0E7002404EB440402EB8402FF24947197
:100C90004BF601549480E5E70124F3E70224F1E7E1
:100CA0009110002000ED00E04C0600204D110020C6
:100CB00011010010014B0B440360704788100020A5
:100CC00070B5104C104DAC420ED2FF26236863B1B4
:100CD000FFF712FE01462046FFF7ECFFA680BFF3A8
:100CE0005F8F0834AC42F1D370BDFFF705FE0146BB
:100CF0002046FFF7DFFF2671BFF35F8F0834AC4259
:100D0000E4D370BD8C0D0020940D00200D4B1A68AB
:100D1000EFF3108172B6D2E8CFCF0120BCF1000F03
:100D2000F9D1C2E84C0FBCF1000FF4D1BFF35F8FD3
:100D300000221B68C3E88F2F81F3108840BF00207A
:100D400000217047401100202DE9F04F2DED028B5E
:100D500085B0EFF30583DBB2103B9A0818BF012280
:100D60004FF0010103F0030B18BFAF4DAF4B08BFAD
:100D7000AF4D0BEB820253F8226001FA0BF205F53E
:100D800041539FEDA78B01925A602FE0B3881C045A
:100D900040F19380B379002B40F0DD80B6F9082054
:100DA000002AC0F21E81736902EB420203EBC20308
:100DB000D3E90247B7F1FF3F08BFB4F1FF3F0ED0C0
:100DC00005EB8B01AB6A0A69D21AE31A934205D389
:100DD00001232A6A03FA0BF3134200D10C6128465F
:100DE00000F0A4FBA042B941C0F2FB80B6F9083084
:100DF000019A002B0093EA63C8DBD6F8148003EB5A
:100E00004309284608EBC907D7E9024A00F08EFBE0
:100E1000A04271EB0A01B9DBBAF1000FC0F2C38046
:100E2000D7E90431834A934200F0ED807A88B6F91D
:100E3000080092B242EA0040984702460B4652EA46
:100E4000030100F0B080002B80F2D180B4EB020EE1
:100E50006AEB030A38F93930C7E902EA002B95DB5F
:100E6000716903EB430201EBC202D2E90270BE4595
:100E70007AEB000C4FEA430288DBB4462CF8083FBB
:100E800006E003EB430001EBC0005A00D0E902701A
:100E9000BE451A447AEB000001EBC20404DB31F9D1
:100EA0003230A446002BECDA28F83930009BACF83D
:100EB0000030B3881C043FF56DAF3369EFF3108247
:100EC00072B6D3E8CF0F01210028FAD1C3E8401F42
:100ED0000028F6D1BFF35F8F4FF6FF74B088002370
:100EE000316900B2B480C1E88F3F82F31088984224
:100EF000FFF650AF0746A946746906F1080807EBEC
:100F0000470E04EBCE03D3E90250B6F90830C446CD
:100F1000002B13DBB246009704E034F936309446D8
:100F2000002B09DB03EB430604EBC602D2E9027196
:100F3000BD4270EB0101F0DA5646009FACF800703C
:100F400034F93E7024F83E30002FD8DAB3794D469C
:100F5000002B3FF423AF0023B371B6F9083006F13C
:100F60000808581C3DD01A46776903E08046591C92
:100F70003FF416AF03EB430107EBC100B0F802C02A
:100F80001C461CF4004F9E4637F93130EED0944297
:100F900080ED028B05D0A8F80030328927F8312087
:100FA00034817246E3E738F8393033813369EFF33F
:100FB000108272B6D3E8CF0F01210028FAD1C3E81E
:100FC000401F0028F6D1BFF35F8F7388316928F87E
:100FD0003930009B73800023C1E88F3F82F3108873
:100FE000D4E640BF05B0BDEC028BBDE8F08F2846CB
:100FF000CDE9022300F09AFA029A039B10EB020E4D
:1010000043EB010A26E708460B690291984700283E
:10101000C9D00299D1E9002311E700BFAFF30080E6
:10102000FFFFFFFFFFFFFFFF00800B4010110020BC
:1010300000000B40490D00102DE9F84F364C256992
:101040002DB1BDE8F84F0A213448FFF733BEDFF871
:10105000E4800321404600F057FA0326C4F80C80D0
:10106000FFF74AFC4FF0504C2D4B26700344236190
:10107000DCF800300F216370636961801D834FF0DD
:101080000405A3F878504FF00505A3F890504FF0F1
:101090000605A3F8A8504FF007050E214FF6FF7282
:1010A00008274FF00A0EA3F8C0504FF001094FF087
:1010B0000C0C4FF0020B4FF0090A0D204FF00B05FE
:1010C000A3F868111749A280A3F808E1A160A3F86A
:1010D00048B0A3F8F0A0A3F82051A3F838C1A3F8B2
:1010E0005001A3F83090A3F86060A3F8D8701A807C
:1010F0000D4B3046C8F820700C49DC60FFF752FCFD
:1011000049463046FFF738FC094B0A211F64034863
:10111000BDE8F84FFFF7CEBD940600204011002037
:1011200088100020FFFF100010110020490D001052
:1011300000200B4000000B400146F0B50069EFF3C2
:10114000108772B6D0E8CF5F0124002DFAD1C0E835
:10115000454F002DF6D1BFF35F8FB1F902E04C6926
:101160000EEB4E0CBEF1000F4FEACC05086904EB04
:10117000CC0C3CDB665B4E800026C0E88F6F87F3AB
:101180001088BCF80200CCE902230130C0F30E0045
:10119000012838BF0120059BACF80200CCF81030C4
:1011A000069B40EA0E40CCF814300B69EFF3108236
:1011B00072B6D3E8CFCF0127BCF1000FF9D1C3E855
:1011C0004C7FBCF1000FF4D1BFF35F8F8B8863536A
:1011D000A1F804E00B69C3E88F6F82F31088012245
:1011E000CB68097803F501538A405A60F0BD0023AB
:1011F000C0E88F3F87F310884FF0FF30F0BD00BF8D
:1012000003464089B0EB214F37DD58690A1402EBE1
:10121000420210B500EBC2001C69EFF3108C72B6ED
:10122000D4E8CFEF0122BEF1000FF9D1C4E84E2F70
:10123000BEF1000FF4D1BFF35F8F428889B292B242
:101240008A4207D000221B69C3E88F2F8CF31088D5
:10125000002010BD42F400424280012100221869A2
:101260009971C0E88F2F8CF310881C78DA680846D3
:1012700002F50153A140596010BD0020704700BF26
:101280002DE9F04182B004460E4600F057F94FF0C8
:10129000FF326FF00043241846EB0106A24273EBC5
:1012A00006013CBF14461E46A51F46F1FF37AC425F
:1012B00076EB07033CBF00252F4600F03FF9281AC4
:1012C00067EB010C01287CF1000C06DA2046314660
:1012D00002B0BDE8F04100F069B900F02FF9854295
:1012E00067EB010100290ADB0021174B2A46009316
:1012F00016483B460191FFF71FFF0130E6D04FF043
:10130000000C134A1349536A9F4204D8906AA842BA
:10131000DCD29F42DAD10B68EFF3108072B6D3E8CB
:10132000CF8F5FF0010EB8F1000FF8D1C3E848EF9E
:10133000B8F1000FF3D1BFF35F8F0B68C3E88FCF15
:1013400080F3108820BFDEE70D0D0010940600200A
:1013500000000B40401100202DE9F04182B006460C
:1013600000F0ECF84FF47A7304464FF0FF306FF062
:101370000042E6FB0341A04272EB01033ABF044680
:1013800015460D46A61F45F1FF37B44275EB07031E
:101390003CBF0026374600F0D1F8301A67EB010158
:1013A000012871F1000106DA2046294602B0BDE8A5
:1013B000F04100F0FBB800F0C1F8864267EB010194
:1013C00000290ADB0021174B3246009316483B46A2
:1013D0000191FFF7B1FE0130E6D04FF0000C134A47
:1013E0001349536A9F4204D8906AB042DCD29F42AC
:1013F000DAD10B68EFF3108072B6D3E8CF8F5FF0CD
:10140000010EB8F1000FF8D1C3E848EFB8F1000FB2
:10141000F3D1BFF35F8F0B68C3E88FCF80F31088E1
:1014200020BFDEE70D0D00109406002000000B40E9
:10143000401100202DE9F04306460D4683B0EFF33E
:101440000584E4B23CB12D4B5A6AAA421CD200205A
:1014500003B0BDE8F0832A4FD7F80C9097F80080CE
:10146000484600F063F808F1040859F828301B1AC0
:10147000301A65EB0101984271F1000110DB20BFC9
:101480001E4B5A6AAA42E2D314BF012400249B6A6D
:10149000B34234BF204644F0010003B0BDE8F083FE
:1014A00000F04CF8864265EB0101002914DB154B76
:1014B0003846CDE9003432462B46FFF73DFE011E8B
:1014C0000ADD0E4B5A6AAA4216D39B6AB34211D365
:1014D0000B48FFF795FEB6E7084B5C6AAC42B6D303
:1014E000641B18BF01249B6AB34234BF204644F0FA
:1014F0000100ADE7AA42EBD120BFE9E700000B40B5
:10150000940600200D0D001010B4054B054C064A42
:10151000A04214BF1846581C5DF8044BFFF7C0B931
:10152000B010002000800B40F49900100346416A7F
:101530000A46986A596A8A42FAD17047034B596A37
:101540000A46986A596A9142FAD1704700000B40E6
:1015500030B4154A536A9C46946A536A6345FAD17B
:10156000021959414FF0000528BF01250E4B5B6A57
:10157000B5B15A1C08BF1A4608D04FF0FF310A46D1
:101580000948436A8B42FCD38B4207D1064902E0EB
:10159000486A984202D1886A9042F9D330BC7047B9
:1015A0009942EDD8F0E700BF00000B40074A536AAC
:1015B0009942FCD8994207D1044B02E05A6A914201
:1015C00002D19A6A9042F9D8704700BF00000B40E0
:1015D000F8B5054606200E4600F0E4F8002842D093
:1015E000354A3648954214BF4FF080624FF0006292
:1015F000334B344902601A608C6832EA0404FBD130
:101600002D4B4FF48071EB1AB3FA83F32E4A5B092A
:10161000062022F8131000F0C5F8C300B3FBF6F360
:101620000133DA0920D1402601216962AA622F6BB9
:10163000FB0722D42B46002253F82C1F062003F56B
:10164000805422602F6300F0ADF840F20131032294
:101650008000B0FBF6F0EB6A83F0700303F07E03CA
:1016600023602963AA64F8BD4FF6FE718A421BD934
:1016700022464FF6FF71154ED7E740F2013205F5CD
:1016800040531A636B6AAC6A062004EB831400F0C3
:1016900089F80F4BA402A3FB0023DB0A0021B4FB53
:1016A000F3F0FFF755FFC5E7C3F34503114603EB1E
:1016B00082161A46B9E700BF0080074000200240AA
:1016C000003002400000024044110020C0FF3F00F3
:1016D000757B2B8F00EB400C4FEA8C0C0CF1804C8F
:1016E0000CF5803CF0B51646DCF80420051FB2F579
:1016F000803F38BF4FF48032EDB238BFCCF80420C1
:10170000012D2AD94FF40067254C0CF54052176083
:1017100054F82020B2B9DCF80020012D82EA4612EC
:1017200002F0E0020CF5805632602AD94FF40061D5
:1017300044F820304FF480330CF500521160CCF89F
:101740000430F0BD6769B7FBF2FE0EF1010E0EEB3F
:101750004E0EBEF1030EFCD2DDE70129D2D10324E7
:101760000CF540521460DCF80820D207FBD5DCF8F9
:1017700000200B4C82EA461202F0E0020CF5805683
:1017800032600122DCF800504D4005F00305356061
:1017900002FA01F1DCF808200A42FBD0C6E700BFDC
:1017A000B4100020014B53F820007047B410002003
:1017B00070B4039D04682D0345EA03451B4B002CC0
:1017C000B3FBF1F3B2FBF3F61FDB194A194B90425E
:1017D00014BF4FF480424FF40042174C1A6003F5D7
:1017E00080531A60A36832EA0303FBD1212200F57B
:1017F00040530433016086601A600268002AFCDAF4
:101800000822C5601A6070BC7047036803F03F038C
:101810008B42DAD18368C3F30B03B342D5D1C368DB
:1018200003F4EE23AB42D0D1EDE700BF001BB700BD
:10183000008005400020024000000240012300EB30
:101840004000800000F1804000F58410416003609A
:10185000704700BF0023DB8A002242E800F25202F8
:1018600001D4102118470421184700BF034AD2F8B9
:101870002838002BFBD0BFF35F8F704700000E406D
:101880000021044B044ABFF35F8F43F8041B9342CB
:10189000F9D170470C080E402C080E4010B44FF4DC
:1018A0008D704FF42A64064A064B07491460D060D5
:1018B00019605368002BFCDA5DF8044B704700BFD9
:1018C0000080044000A0044000B0FA00704700BF50
:1018D00008B50148FEF7CCFF189A001038B5054C42
:1018E000054DAC4204D254F8043B9847AC42FAD3BD
:1018F00038BD00BF60990010A099001010B40748CF
:10190000074C084B084A094904601A608B6832EAA0
:101910000303FBD15DF8044B704700BF0020024079
:101920007F3BEFEF00300240F6FFF3030000024080
:10193000044BDB6CB3F5004F03D14FF48022024B14
:10194000DA64704700001150002011504FF0E0227F
:10195000044BD2F8881D0B43C2F8883D10EE3004CA
:10196000704700BF030330006FF06041044B054A2D
:1019700019609368DB4333F06043FAD1704700BFCE
:10198000003002400000024010B545F25320FFF73E
:1019900061FFBDE8104003460420184710B545F22A
:1019A0005320FFF757FFBDE81040034601201847BA
:1019B000FEF7B6BF1449154B70B55C1AA610442E3D
:1019C000324628BF4422124D9200284603F0AAF85E
:1019D000B4F5867F13D80F4AC6F1440012D02B19F4
:1019E000410803EBC101C3E9002208338B42FAD15D
:1019F000C30704D520F00100304445F82020064BF1
:101A00009D6070BD4320F8E7000000101001001039
:101A1000000000201101001000ED00E0002370B56F
:101A20002B4C82B0C4F88430FFF738FF0122294BD9
:101A3000DA63636C012BFCD10321264A244B11632A
:101A40009C6B012CFCD10226052521460523224A48
:101A500022480096FFF7ACFE21462B46204A21483B
:101A60000095FFF7A5FE0022042031461E4BFFF72C
:101A700031FE2146284600221C4BFFF72BFE002298
:101A8000082011461A4BFFF725FE002209201146B7
:101A9000174BFFF71FFE002206201146134BFFF7DE
:101AA00019FE0022114B07201146FFF713FE0420F8
:101AB000FFF778FE00240F4BA3FB0035AD0CE0B21E
:101AC00029460134FFF7BAFE062CF8D102B070BDEA
:101AD0000000014000300140002F6859000005401F
:101AE000008C864700800540001BB70080D1F008BD
:101AF000006CDC0283DE1B4386B003B451FC080497
:101B0000CDE9020151FC0904CDE9040151EC0A04BC
:101B1000CDE9060103BCF047BDE800504EEC00C41F
:101B2000BDE800504EEC01C4BDE800504EEC02C4CC
:101B300000BD000000B5FFF7DFFF02E010FE30F44B
:101B4000F8D441EC100443EC112400EE010410EE33
:101B5000010480EE200451EC1004704700B5FFF73B
:101B6000CBFF02E010FE30F4F8D441EC100443EC5B
:101B7000112400EE010410EE210480EE200451EC4B
:101B80003004704700B5FFF7B7FF02E010FE30F4F5
:101B9000F8D410B541EC100443EC112451EC0404CA
:101BA00053EC0524A0FB024C5FF0000EE0FB03CEDB
:101BB000E1FB02CE4CEC20440024E1FB03E444ECC6
:101BC00030E480EE200451EC5004BDE81040704732
:101BD00000B5FFF791FF02E010FE30F4F8D441ECBD
:101BE000100443EC112451EC2104A0FB01126FEA14
:101BF000820252FB100052FB12F252FB1000A0EBCB
:101C0000D07C53EC04245CFB13F153EC1524A1FBB2
:101C1000022001FB030053EC4424A2EB000050FB24
:101C20001CF24FEA111312EB017043EBE27140EA30
:101C3000515020EA915020F0070053EC7524A0FB8E
:101C4000023C53EC752400FB03CC01FB02CC53ECAB
:101C50000424ACEB824C40EA5C70A0F1010041EC42
:101C6000400480EE200451EC7004704700B5FFF78B
:101C700043FF02E010FE30F4F8D441EC100480EE93
:101C8000220410EEB204704700B5FFF735FF02E002
:101C900010FE30F4F8D440EC700400EE010410EEB5
:101CA000210480EE200451EC3004704700B5FFF7AA
:101CB00023FF02E010FE30F4F8D440EC600400EEA4
:101CC000010410EE210480EE200451EC3004704732
:101CD00000B5FFF711FF02E010FE30F4F8D441EC3C
:101CE000800400EE010410EE010480EE400410EECA
:101CF0001304704700B5FFF7FFFE02E010FE30F45A
:101D0000F8D441EC800400EE010410EE010480EEF2
:101D1000400410EE3304704700B5FFF7EDFE02E01B
:101D200010FE30F4F8D441EC100443EC112400EE22
:101D3000010410EE3004C0F30070704700B5FFF7E7
:101D4000DBFE02E010FE30F4F8D441EC100443EC6A
:101D5000112400EE010410EE3004C0F380707047CF
:101D600000B5FFF7C9FE02E010FE30F4F8D443ECF2
:101D7000102441EC110400EE010410EE30F48CBF8D
:101D800001200020704700BF00B5FFF7B5FE02E05C
:101D900010FE30F4F8D443EC102441EC110400EEB2
:101DA000010410EE30F42CBF01200020704700BF6A
:101DB00000B5FFF7A1FE02E010FE30F4F8D441ECCC
:101DC000100443EC112400EE010410EE30F42CBF9B
:101DD00001200020704700BF00B5FFF78DFE02E034
:101DE00010FE30F4F8D441EC100443EC112400EE62
:101DF000010410EE30F48CBF01200020704700BFBA
:101E00000022002950DA404261EB4101C9B1B1FA28
:101E100081F30B3B17D4D3F1200C30FA0CFC984023
:101E2000994051EA0C011A44524202F2324201EB4B
:101E3000025141F0004140F2FE739A4238BF7047B0
:101E400021E011467EE003F1210310FA03FCA3F127
:101E5000010301FA03FCC3F1200320FA03F021FA85
:101E600003F140EA0C00A3EB020202F2324214D06A
:101E700050F1000041EB025141F0004140F2FE738D
:101E80009A4238BF70474FF00001A8BFC7F6F07103
:101E90004FF00000704700217047EBD350F1000075
:101EA00020F00100E6E70022B9B1B1FA81F30B3B63
:101EB00016D4D3F1200C30FA0CFC9840994051EA2A
:101EC0000C011A44524202F2324201EB025140F23A
:101ED000FE739A4238BF704720E0114600F066B8A2
:101EE00003F1210310FA03FCA3F1010301FA03FC3F
:101EF000C3F1200320FA03F021FA03F140EA0C00B9
:101F0000A3EB020202F2324212D050F1000041EB88
:101F1000025140F2FE739A4238BF70474FF0000101
:101F2000A8BFC7F6F0714FF000007047002170475E
:101F3000EDD350F1000020F00100E8E7002880F226
:101F400035804042B0FA80F30B3B11D4984001EB4E
:101F50000302524202F2124200EB025141F00041F0
:101F60004FF0000040F2FE739A4238BF704713E012
:101F7000C3F1000330FA03FCC3F120029040A3EB4D
:101F8000010202F212420CEB025141F0004140F218
:101F9000FE739A4238BF70474FF00041A8BFCFF69A
:101FA000F0714FF0000070470021704760B3B0FA45
:101FB00080F30B3B0FD4984001EB0302524202F234
:101FC000124200EB02514FF0000040F2FE739A42C1
:101FD00038BF704710E05B4230FA03FCC3F12002C7
:101FE0009040A3EB010202F212420CEB025140F2CC
:101FF000FE739A4238BF70474FF00001A8BFC7F682
:10200000F0714FF000007047002170470022A2F2EB
:1020100032425FEA215CACF10103A1EB03515B05A5
:1020200013F5800F32D212EB535210D40B2A36DA4A
:102030009140D2F1200330FA03F319439040BCF1F0
:10204000000FA8BF7047404261EB4101704720324A
:102050000EDD01FA02F3D2F12002D140D040184344
:10206000BCF1000FA8BF7047404261EB41017047CF
:10207000524282F3050231FA02F00021BCF1000F56
:10208000A8BF7047404261EB4101704702D0002079
:102090000021704750EA013118BF4FF0000C6FF07B
:1020A000004101EBDC716FEAEC70704710B504463B
:1020B00001F09CFE28B10346034A2344934200D812
:1020C00010BD0248FEF7D4FB00000820249A00103F
:1020D00010B50C4602F062F928B10346034A2344C6
:1020E000934200D810BD0248FEF7C2FB0000082052
:1020F000249A001001F082BE9A4238BF885470477B
:10210000704700BF2DE9F04F83B09946DDE90DAB74
:102110000F9B884611469A07074616D1DA453AD2F0
:102120000C460D46ABEB0A060E4422464B46414692
:1021300020200134B847B442F7D12946BAF1000F44
:1021400008D1204603B0BDE8F08F0C46BAF1000F6D
:1021500010D00E4655460C9B2E449A440191721B9A
:102160004B46013D41461AF8010D3446B847002D53
:10217000F5D101990F9B9B07E3D5651AAB45E0D9D3
:1021800022464B46414620200135B8475D4504F1C3
:102190000104F5D3D5E70C46BAF1000FD9D1D0E749
:1021A0002DE9F04F0F9FDDF8248017F0020F0A9CF5
:1021B0009DF82CA00E9DDDE90C9644D1F5BBB442F0
:1021C00041D207F0010B04F1FF3C4FF0300EC44444
:1021D00004E00134A6420CF801EF01D9202CF8D11B
:1021E000BBF1000F00F08880A5422CD904F1FF3C20
:1021F0004FF0300EC44404E00134AC420CF801EF5F
:1022000021D0202CF8D117F0100F0ED017F4806FCA
:1022100054D1A64263D0A54261D0B9F1100F50D07D
:10222000B9F1020F56D0202C29D12024CDE90B572B
:10223000CDE90984BDE8F04FFFF764BF17F0010B4B
:1022400034D1B442BFD317F0100F1ED017F4806FF3
:10225000E3D1002CDDD1B9F1100F63D0B9F1020F39
:1022600077D0302488F800400124BAF1000F11D152
:102270007E0748D52B2608F804600134D6E72646A9
:1022800001344FF0300C08F806C0202CCDD0BAF144
:10229000000FEDD02D2608F804600134CDE90B576E
:1022A000CDE90984BDE8F04FFFF72CBFBAF1000F6C
:1022B00030D0B44205F1FF3585D395E7B9F1100F61
:1022C000B3D1BE063BD5202CAFD0582608F8046009
:1022D0000134A8E7202CA8D02646013407E0661E6A
:1022E000B9D0B9F1100F36D0B9F1020FC9D14FF002
:1022F000620C08F806C096E717F0100FC5D017F467
:10230000806F86D089E73E0790D5202608F80460C4
:1023100001348BE717F00C0F00D0013DB442FFF4FD
:1023200052AF61E7BC0612D4782488F8004030240C
:1023300088F801400224BAF1000F99D0AAE7202CB6
:102340003FF473AF782608F8046001346BE7582433
:10235000EBE76224E9E717F0200FA4F1020C04D0A8
:102360004FF0580E08F80CE08BE74FF0780E08F8A5
:102370000CE086E700B9704701F08EBB000000005A
:102380002DE9F04F97B09DED207BDDE9225B0746FC
:10239000884651EC170B249C99460C920B4602463A
:1023A0008DED047B0794FFF7BBFC002840F0F4811F
:1023B000DDE904014FF0FF326FF48013FFF7D4FC26
:1023C000002840F01B81DDE904014FF0FF32AC4BE7
:1023D000FFF706FD002840F0EE80DDE90401A4A32C
:1023E000D3E90023FFF7FCFC002840F0D380DDE9AF
:1023F0000401A1A3D3E90023FFF7B6FC002840F0B5
:10240000C980DDE9040100220023FFF7ADFC0028AC
:1024100040F0E88023460D9013F4806F08BF062536
:1024200030212B460EAAA5F1200605E0013BB34260
:1024300002F8011B00F09381092BF7D81E46ED1A14
:10244000DDE90401FFF748FC8E4B044603EBC603AD
:1024500093ED007B8DED087BFFF71AFC02460B46DF
:10246000DDE90401FFF77EFBDDE90823FFF78EFBC2
:1024700002460B46CDE90A23FFF740FC8246FFF7F0
:1024800019FC02460B46DDE90A01FFF76BFB024629
:102490000B46CDE90A2300227B4BFFF7A1FC002865
:1024A00000F0FE800AF1010A5046FFF703FC0246E5
:1024B0000B46DDE90801FFF76BFC10B14FF0000A95
:1024C0000134002E00F0FD80681E0EABDFF8CCC199
:1024D00018440FE0ACFB0A21C90801EB8102AAEB0A
:1024E00042023032BAF1090F00F8012F40F21C818C
:1024F0008A461D46202D05F1010306F1FF36E9D17C
:102500002025691E0EAB6148194410E080FB04626F
:10251000C3EBA20303EB8302A4EB420404F13002F9
:1025200001351C4601F8012F002B00F0EB80202D17
:102530004FEAE473EAD1079B03F00303012B18D1A0
:10254000BBF1000F15D00D9B002B00F00A810BF1A1
:10255000FF3BBBF1200F0CD96B1E0EA930220B44A0
:1025600005E001355D4503F8012F80F0D180202D75
:10257000F7D1079B0EACCDE902B341464B46384636
:102580000C9A01950094FFF7BDFD8246504617B0A6
:10259000BDE8F08F079B9DED047BCDE923B3414659
:1025A0004B4638460C9A8DED207B229517B0BDE83E
:1025B000F04F00F045B9610723464CBF04230323C5
:1025C0004146219338464B46079A48BF304CCDE9E7
:1025D00022B258BF2F4C0C9A209417B0BDE8F04F90
:1025E000FFF790BDDDE9042300200021FFF7BAFAD0
:1025F0000123CDE904010D9323460DE723469C07F3
:1026000040F0AA80BBF1040F40F2A6800C9B1D464F
:102610001C1F04EB0B0A2A464B464146202001357D
:10262000B847AA45F7D155461B4C261F14F8010D93
:102630002A464B464146B847B44205F10105F5D15B
:10264000079B0AF1040A9807A0D50C9CAAEB040387
:102650009B459BD952464B46414620200AF1010A30
:10266000B847AAEB04035B45F4D38FE7AFF30080D0
:102670000000000065CDCD410000000065CDCDC15A
:10268000FFFFEF7FE09C00100000E03F676666669A
:10269000749A00107C9A0010889A0010CDCCCCCC93
:1026A0000022DDE90A01634BFFF75EFB00287FF49F
:1026B00008AFBAF1000F6AD10AF1010A002E7FF4C7
:1026C00003AF2046FFF7E4FA02460B46DDE90401BA
:1026D000FFF748FA02460B46CDE904230022554B8A
:1026E000FFF742FB00287FF40CAFDDE90401002274
:1026F000504BFFF775FB00287FF403AF013424F043
:102700000104FEE6079B03F00303012B00F0828027
:10271000202D3FF42EAF0D9B7BB32D220DEB050337
:1027200083F83820013524E7202B3FF4E9AE0EAAC8
:1027300015441E44302204E0202B05F8012F3FF4FD
:10274000DFAE9E4203F10103F6D12E220DEB06030C
:1027500083F83820751CD4E6DDF830A063E7202527
:102760006EE6079B13F00C0F50D00BF1FF3BAB450F
:102770003FF6F2AE202D3FF4FCAE079B5A0701D581
:102780002B22CBE71B077FF5F4AE2022C6E71AF019
:10279000010F3FF496AE8FE7A60734D1BBF1030FCC
:1027A00031D90C9B1D46DC1E04EB0B0A2A464B4616
:1027B000414620200135B8475545F7D155461E4CB6
:1027C000E61E14F8010D2A464B464146B847A6427C
:1027D00005F10105F5D1079B0AF1030A9D077FF575
:1027E000D5AE0C9CAAEB04039B457FF6CFAE5246B8
:1027F0004B46414620200AF1010AB847AAEB0403E0
:102800009B45F4D8C2E6DDF830A0D7E7AB453FF6EC
:10281000A3AEAEE6BBF1000F3FF47AAF0D9B002BE9
:102820009FD00BF1FF3B5D45FFF496AE202D7FF46A
:1028300074AF9EE60000E03F839A001000000000A5
:102840002DE9F04F9FB02A9EDDE9284507469346C3
:102850000891099322462B46204629460E96DDE92B
:102860002BA6FFF75DFA002840F0BE8020462946DF
:102870004FF0FF32784BFFF7B3FA002840F0B480F6
:10288000204629464FF0FF326FF48013FFF76CFAB1
:10289000002840F0A9802046294600220023FFF7A7
:1028A00063FA002840F0D581CDE90A45DDE90A2325
:1028B0009046994606F4006216F480630F921393D3
:1028C00040F0A18058EA090340F0CA80002A40F095
:1028D000E38106230E9316F00202109240F0D48199
:1028E0005346042B38BF04230C920422043B12925B
:1028F0000F932046294600220023FFF735FA0028CF
:1029000040F0F3819DED0A7B0F9B5A4603930E9B8B
:102910008DED007B029326F4006304933846099BF7
:102920000899FFF72DFD024616F0200F099B089924
:102930000CBF6520452002F10108B8470C9A129B94
:1029400016AC5D1E82EAE273A3EBE273D10F0026A0
:1029500022469946DFF804C101E0202E10D0CE4671
:10296000ACFB0930C00800EB8003A9EB4303303314
:10297000BEF1090F814606F1010602F8013BECD8D1
:102980000523002006930A2305950094099D089CC1
:102990004246CDE90330CDE901612B462146384658
:1029A000FFF7FEFB109A8046D2B1A0EB0B06B245B2
:1029B00016D90BEB06022B46214620200136B847DC
:1029C000B245F6D80BF1FF335344CBF10102A3EB30
:1029D00008034244924538BF002308F10108984497
:1029E00040461FB0BDE8F08F5A463846CDE928452D
:1029F000CDE92BA60E9C099B08992A941FB0BDE82F
:102A0000F04FFFF7BDBC58EA09032BD1002A3FF471
:102A100062AF00230C930E9B0C9A934200F3B98192
:102A20004FF000082046294600220023FFF79CF9BA
:102A3000002840F013819DED0A7B26F4006646F4E1
:102A400080668DED287B5A463846CDE92A8A099B57
:102A500008992C96D2E700BFFFFFEF7FCDCCCCCCFE
:102A600006230E93C9F30A50A0F2FF30FFF710F9C6
:102A7000C1A3D3E90023FFF789F8C1A3D3E9002359
:102A8000FFF75CF8C9F31309CDE90C0149F07F5158
:102A900040460022B24B41F44011FFF763F8A4A373
:102AA000D3E90023FFF772F802460B46DDE90C017B
:102AB000FFF744F8FFF710F90C90FFF7E9F89EA331
:102AC000D3E9002380468946FFF760F80022A54B32
:102AD000FFF734F8FFF700F90346494640461293E2
:102AE00097A3D3E90023FFF751F88046129889464F
:102AF000FFF7CEF894A3D3E90023FFF747F8024687
:102B00000B4640464946FFF72DF802460B468046E5
:102B10008946FFF73BF842464B46CDE91001404657
:102B20004946FFF70BF80022CDE91401DDE9100159
:102B30008D4BFFF751F800228C4BFEF7FFFF02464A
:102B40000B46DDE91001FFF747F80022884BFEF73E
:102B5000F5FF02460B46DDE91001FFF73DF842465E
:102B60004B468046894600204FF08041FEF7FAFF31
:102B700002460B4640464946FEF7E0FF02460B463A
:102B8000DDE91401FFF728F800227A4BFEF7D6FFA3
:102B9000129B002203F2FF3C4FEA0C53FEF7F6FFB4
:102BA00080468946DDE90A0142464B46FFF7DCF8DC
:102BB00050B10C9B4046013B49460C9300226B4BA5
:102BC000FFF70AF8804689460C9A43466332C62AC4
:102BD00006F00202109249460F9A2CD8002A5ED0C5
:102BE000042212920B433FF416AFDDE90A0158A309
:102BF000D3E90023FFF7E0F848B1DDE90A0156A365
:102C0000D3E90023FFF7B0F800287FF404AF0E9B50
:102C1000002B50D0139A002A7DD0013B0E93129BBB
:102C20009A4505D9109B002B00F0AE80022310932B
:102C300000230F9344E022BBBAF1050F4FD906F0F1
:102C40000203002B49D105231293AAF105030F9328
:102C50003AE005F100430A940B9327E626F4006658
:102C600046F4806638462C96DDE90A67344607F15B
:102C700000455A46CDE92A8ACDE92845099B08999D
:102C8000BCE605221292ADE700230222CDE90F3205
:102C900004220C9312922CE64FF00508C2E6BAF11A
:102CA000040F1FD9109B002B78D104231293AAF193
:102CB00004030F9304E0129B9A4531D80E9B0F93A7
:102CC0000C9B002B3FF415AEDDE90A0142464B4652
:102CD000FEF782FFCDE90A010BE6022310930523DC
:102CE0001293F1E704231293EAE7DDE90A45A046CF
:102CF0000F9B05F1004903930E9B5A46029326F45D
:102D0000006304933846CDE90089099B0899FFF7D1
:102D100037FB024608E6129B9A4544D80F92CFE74C
:102D2000109B8BB30E9B0F9302231093C8E700BF39
:102D300061436F63A787D23F71A379094F930A401C
:102D40001655B5BBB16B0240EF39FAFE422EE63F95
:102D50002D431CEBE2361A3F0000000080842E4118
:102D60000000F83F0000E03F00002C40000024403D
:102D7000000018400000F03FFB799F501344D33F00
:102D8000B3C8608B288AC63F129BAAEB03030F933C
:102D900096E7A3EB020808F1FF3843E604231293F9
:102DA000022310938CE7109B002BEDD002230F928F
:102DB000109385E72DE9F04F9BB0249C954D0A9424
:102DC000954CB1F1000A18BF834625601878934CE2
:102DD000914608BFA3460993002800F093824FF064
:102DE00000080AE042464B46514608F10108D84720
:102DF000099B1878002800F0CE80099B252803F154
:102E000001030993EED11C460023224612F8010B60
:102E1000A0F1200110290AD8DFE801F04009093C9F
:102E20000909090909090938093409093000A0F11B
:102E300030010929099440F28A802A2800F0F080A4
:102E400000252E2800F096800026A0F168011229A6
:102E50002DD8DFE811F049012C0043012C00380186
:102E60002C002C002C002C002C002C002C00270007
:102E70002C002C002C002C002C002700144643F0C2
:102E80000103C2E7144643F00203BEE7144643F0D1
:102E90000403BAE7144643F01003B6E7144643F0C0
:102EA0000803B2E70999487843F480730132672830
:102EB00009927ED8242840F2C180A0F12502422A3E
:102EC00000F2BC80DFE812F05001BA00BA00BA008C
:102ED000BA00BA00BA00BA00BA00BA00BA00BA0022
:102EE000BA00BA00BA00BA00BA00BA00BA00BA0012
:102EF000BA00BA00BA00BA00BA00BA00BA00BA0002
:102F0000BA00BA00BA00BA00190137011901BA00B3
:102F1000BA00BA00BA00BA00BA00BA00BA00BA00E1
:102F2000BA00BA00BA00BA00BA00BA00BA00BC01CE
:102F3000BA00BA00BA00BA00BA00BA00BA00BA00C1
:102F4000BA00BC015801BC01190137011901002563
:102F500000E0013205EB850500EB45051078303DBA
:102F6000A0F130010929F4D92E28099202F10102B9
:102F70007FF46AAF099943F4806348781146A0F161
:102F80003006092E40F221812A2800F02F81099273
:102F90000026013259E74446C14501D809F1FF38FE
:102FA0004B46424651460020D84720461BB0BDE85C
:102FB000F08FA0F16902D2B20F2A3FD8012149F265
:102FC00041079140394040F0F3800A2A3DD0072A5A
:102FD00034D10A9D55F8042B002A00F0138143F0E8
:102FE000210012AB1F460B9303E0202900F014814F
:102FF0001A4602F00F042346092C94BF30333733AE
:103000000F2A07F8013B01F101014FEA1213ECD836
:1030100002E100BFB52D0010F410002001210010C6
:103020000A99099851F8045B4078002DCDE90921EF
:10303000BCBF43F002036D42013202E742464B46F9
:10304000514608F10108D847D2E60A99002E51F8F6
:10305000047B18BF3246387808BF4FF0FF32002893
:1030600000F07B83BC18A4463A4604E012F8014FF6
:10307000002C00F03F819445F8D16446E41B5A05CA
:1030800040F12281B44228BF344613F0020300F01D
:1030900088820223CDE90A5142461D46464408E093
:1030A0004B465146D84717F8010F08F1010810B1F7
:1030B00042464645F4D12B460B990A9D002B40F021
:1030C00041810A9194E6099948786C287FF4ECAE26
:1030D0000A46887843F440730332E8E6099943F4DA
:1030E000007348780132E2E609994878682800F0D0
:1030F000038143F080030132D9E6672800F0D980CC
:10310000472800F0DC80452800F0DB80CDE9035340
:103110000A9B0296073323F007031C464246F4E855
:1031200002674B4651465846CDE900670A94FFF7BF
:1031300087FB80465CE6462808BF43F02003CDE9C4
:1031400003530A9B0296073323F007031C464246AB
:10315000F4E802674B4651465846CDE900670A94A9
:10316000FFF70EF9804643E642464B46514625207E
:1031700008F10108D8473BE60A9A990702F10404CE
:1031800008F1010640F1C68010784B464246514690
:10319000D847012D88BFA84440F2BD8132464B4636
:1031A000514620200136D8474645F7D10A941FE6FC
:1031B0006F2800F0818040F24882782800F09081EA
:1031C0000A2723F01003BC4641E0002606EB8606E2
:1031D00000EB4600A0F1300611F8010FA0F130021B
:1031E000092AF3D90A46099101322EE6DDE90921BF
:1031F00051F8046B9078023209920A91013226EA62
:10320000E67622E623F0100013F4806240F02100FD
:103210003FF4E7AE12AB0B930B9B06900093082391
:103220001020059300234246CDE9023001914B4620
:10323000514658460496FEF7B3FF0A958046D7E5F7
:10324000582862D0622840F08F800227BC4613F4D1
:10325000806000F0DD8023F00D0313F4007240F075
:1032600081810A990F1D13F4807140F037825C064A
:103270000A9A40F13B811278002A40F04E8123F0F7
:103280001003002800F04981114612AA0B92CDE9E3
:103290000553CDE903C601910B9B424600930023E1
:1032A0005146029358464B46FEF77AFF0A978046EE
:1032B0009EE543F4006329E70827BC46C7E743F4CB
:1032C000006343F0200321E713F0020300F08E8136
:1032D00002230A951E460D4642464B465146D847A4
:1032E00017F8010F08F101080028F5D129463346E7
:1032F0000A9DE3E6D41BC2E60A46887843F0C00381
:103300000332D4E50446804646E6102743F0200306
:10331000BC469CE7012D40F2F880464608F1FF3795
:103320002F4432464B46514620200136D847BE42F4
:10333000F7D10A9B3246187851464B46D847A844E5
:103340000A9455E54646A5427FF6BBAEA844A8EBD5
:1033500004080C4632464B46514620200136D847D9
:103360004645F7D12146ACE613F4806200F0BB80FD
:103370004FF4806223F0110C1CF400770A9B4AD1B1
:103380001CF4807003F1040440F034811CF0400F01
:1033900040F0A3801CF0800F00F0D381B3F900103F
:1033A00081EAE177A7EBE177BFB2CB0F002900F00C
:1033B00056813A4612A90F46DFF8D8E30B910A93DB
:1033C0000C9501E020280FD01546AEFB0213DB0858
:1033D00003EB8301A2EB41013031092D1A4600F1C4
:1033E000010007F8011BEDD80A9B0C9DCDE9055C97
:1033F000CDE9010304960B9B424600930A235146F4
:10340000039358464B46FEF7CBFE0A948046EFE402
:1034100023F00C0321E7073323F00703194608467E
:103420005B6850F8081BDF0F0A9051EA030062D175
:10343000002A40F09F811346114612AACDE90C756F
:1034400000201546CDE90E68DFF848E30B9201E055
:1034500020282DD05A1842F10002AEFB027828F045
:10346000030707EB9807D21B1E469B1A61F1000762
:103470000C464FF0CC3101FB03F10EFB0711A3FB0F
:103480000E731944052307F00108A8FB03389B18A5
:103490000A2E03F130034FEA570774F1000405F8D0
:1034A000013B00F1010047EAC1734FEA5101CFD25D
:1034B000DDE90C75DDE90E680B9B424600930A239B
:1034C000CDE9055CCDE90107049603934B465146CF
:1034D0005846FEF765FE80468AE419780F4664E791
:1034E0001027BC46B3E623F0100C45E71C064CBF82
:1034F00012881268C0E60A46191E01DB13469CE7D3
:103500005242134661EB410197E713465146187842
:1035100042464B46D847B04648E613F0200F14BF4A
:103520004120612012ACA6460B940A93A0F10A0434
:103530000C9502E0202912D02A46B2FBFCF50CFBC8
:103540001520C3B2092803F130008ABF1B19C3B28A
:10355000DBB262450EF8013B01F10101EAD20A9BA0
:103560000C9D94E60A9A073222F00702516852F83D
:10357000084B8E460A9254EA010276D123F01003DA
:10358000002872D00022114612AA0B92CDE90553F1
:103590000B9B424600930023CDE903C601910293A1
:1035A00094E7A54298BF01347FF674AD4FF4806371
:1035B000CDE90A7505EB08021F460D46141B42466D
:1035C0004B465146202008F10108D847A045F6D1C6
:1035D0003B460A9F294638780B9D6C1C00283FF417
:1035E00070AD002B3FF475AE002353E5A542DFD844
:1035F00001346EE61968CB0F002900F0A88081EA3B
:10360000E172A2EBE17212A90846DFF888E10B91A2
:103610000A930C9501E0202F0FD01546AEFB021344
:10362000DB0803EB8301A2EB41013031092D1A467F
:1036300007F1010700F8011BEDD80A9B0C9DCDE9AD
:10364000055CCDE901730496D5E6692823F0100CDA
:1036500040F08C8013F480623FF48EAE88E6002A3E
:103660003FF4A8AE12AA0B92C0E613F0200F14BFCD
:1036700041226122002012A90A3ACDE90E68CDE963
:103680000C35CDF844B006468846754693460B91F6
:10369000CDF840C003E0202E17D004460D46294641
:1036A0003A460023204606F04BF9D2B2092A02F12D
:1036B000300388BF02EB0B03BC42DBB275F100059F
:1036C00008F8013B06F10106E5D23146DDE90C358B
:1036D000DDE910CBDDF83C800E9E57E70A990968BA
:1036E00051B923F0100338B112A90B91CDE905535C
:1036F000CDE903C60192CFE513F0200F14BF41209E
:10370000612012ACA6460B940A93A0F10A040C9512
:1037100002E0202A12D02946B1FBFCF50CFB151063
:10372000C3B2092803F130008ABF1B19C3B2DBB250
:1037300061450EF8013B02F10102EAD20A9B0C9DA1
:10374000D4E7196881EAE177A7EBE1772DE6002A53
:103750003FF459AF12AA0B9271E713F480640DD0B5
:1037600013F0020412D004464646ECE50A276346ED
:10377000BC466CE512AB00200B939DE613F00203F0
:103780007FF4E0AD002D7FF413AF9AE4002D7FF4B9
:103790000DAF96E4CDCCCCCC0EB410B585B007AC53
:1037A00054F8043B01464FF0FF3200940448039460
:1037B000FFF700FB05B0BDE8104003B0704700BF45
:1037C000F92000100FB410B50E4B84B006A91C6888
:1037D00051F8043B03915CB100914FF0FF3202A914
:1037E0000948A047012004B0BDE8104004B070476C
:1037F000184600F093F9204604B0BDE8104004B02C
:10380000704700BFF41000207523001010B5094B5D
:1038100084B01C684CB1034600914FF0FF3203A9FD
:103820000548A047012004B010BD00F077F92046FC
:1038300004B010BDF41000207523001000BEFDE799
:10384000074A0346106838B1064903448B428CBFCF
:103850004FF0FF3013607047034908461160F3E7EB
:10386000EC100020000008205011002008B5FFF7E0
:10387000E5FF00BF9C46144600B50B460246614674
:1038800083B044B1054D064801940095FFF79AFFB7
:103890000120FFF7D3FF034D2C46F4E78C9A00106C
:1038A0009C9A0010989A001038B5064C064DFEF709
:1038B00015F8AC4204D254F8043B9847AC42FAD312
:1038C00038BD00BFA0990010A899001003680846F1
:1038D000114618472DE9F0411546427D07468846B6
:1038E000002A46D0002D1DDD0B780A2B23D0012D98
:1038F0004FF0000C18D04646012416F8012F21463F
:103900000A2A04F1010422D0A542F6D165450BDC58
:1039100008EB050313F8013CA3F10D03B3FA83F39D
:103920005B093B75BDE8F0813B68A5EB0C0108EB3A
:103930000C009847ECE7037D002BD8D103680221E7
:103940000F489847012DE3D04FF0010CD3E716F84C
:10395000013C0D2BD8D08C4508EB0C00A1EB0C01E1
:1039600001DA3B689847022105483B689847A4461E
:10397000CAE7294640463B68BDE8F041184700BF0A
:10398000309D00102DE9F04782B00D4691461C464F
:103990000646FDF7D3FD4FF0FF3C6FF000472E4A7F
:1039A000821841F10003944577EB03013CBF624666
:1039B0003B462A4805F0D0FF6B1C804640D00CB334
:1039C000274F284B1C68B4B1B9F1000F1CD1DFF8A8
:1039D0009C9001E0246974B12368002BFAD0D9F8D7
:1039E00000300BB19C42F5D120462A463146B847FB
:1039F0002469002CF0D1B8F1000F26D1284602B07E
:103A0000BDE8F087184FDCE74FF00A0ADFF85C905A
:103A100002E02469002CEED02368002BF9D0D9F8FD
:103A200000300BB1A342F4D12A4631462046B847B4
:103A3000012220460DF107018DF807A0B847E8E7FD
:103A4000304601F0E5F80546B9E7044805F07CFF8B
:103A5000284602B0BDE8F08740420F008C0D0020E0
:103A6000D5380010E0100020CD380010E8100020FC
:103A7000084A136823B90AE003F110021B6933B145
:103A80008342F9D129B9186910601961704701B1F1
:103A900010607047E0100020F0B583B006468DF846
:103AA0000700FDF74BFD4FF0FF356FF00044174A5C
:103AB000821841F10003954274EB03013CBF234699
:103AC0002A46134805F048FF124B07461C689CB174
:103AD000114D01E024697CB12368002BFAD02B68DA
:103AE0000BB19C42F6D1204601220DF10701FFF7F0
:103AF000F1FE2469002CEFD117B9304603B0F0BDB8
:103B0000034805F021FF304603B0F0BD40420F00EE
:103B10008C0D0020E0100020E810002038B504468D
:103B200001F076F8012305461A4620462946FFF79C
:103B300029FF084B1C682CB163682BB19847246996
:103B4000002CF9D1284638BD2469002CF4D1284630
:103B500038BD00BFE0100020B1F1000C1DDD0F4AA0
:103B60000F4B126830B5D31AB3FA83F30D240D4D01
:103B70005B09411E35F913E08C4411F8010F8645AD
:103B800006D093699B06FCD461451060F5D130BD29
:103B900093699D06FCD41460F3E770474811002038
:103BA0000080074044110020224BB1F1000C10B4FA
:103BB0001C682EDD034600201F4A591E12689369B7
:103BC000DB0617D401309369DB06FCD41368844507
:103BD00001F8013FF3D14CB150211346916353F8E2
:103BE000342F02F0380203F580531A6060465DF806
:103BF000044B70474CB150211346916353F8342F56
:103C000002F0380203F580531A6078B15DF8044B76
:103C100070475CB1084B50211A681346916353F802
:103C2000342F02F0380203F580531A606FF002005F
:103C3000DDE700BFA810002048110020054B1B68DD
:103C400033B10021044A054812680068916318479F
:103C5000704700BFA810002048110020AC100020C1
:103C6000024B1A6893691B07FCD470474811002067
:103C7000F8B51C4F1C4D3A681C4EAA4214BF2125B2
:103C800022250446D6F800C018B1BCF1000F10D0B0
:103C9000F8BDBCF1000FFBD0014690632846FCF74D
:103CA0006BFE28461249FCF7ADFE124B34601C60D7
:103CB000F8BD0B460F4A0E49306028461360FCF7EA
:103CC00071FE01212846FCF757FE3A685021134641
:103CD000916353F8342F02F0380203F580531A60D1
:103CE000F8BD00BF4811002000800740A810002048
:103CF0003D3C0010AC10002010B50E490E4C0F4892
:103D00000F4A104B007821600020022112781B78A6
:103D1000FCF758FD02210120FCF754FD4FF4E1317E
:103D20002068FDF755FCBDE8104001210648FFF76B
:103D30009FBE00BF0000074048110020A00B0110EB
:103D40009C0B0110980B0110AC06002000B545F249
:103D500047308BB0FDF77EFD01220346092101A803
:103D60009847DDE90332044912BA1BBAC1E90023BE
:103D70000BB05DF804FB00BF3811002038B5A1FB83
:103D8000021434BB00F042F8054630B350F8042C5E
:103D900022F00302043A242A0CD8132A0FD91B2A32
:103DA000C0E9004412D9242AC0E9024418D000F125
:103DB000100205E0214600F05FFD284638BD0246AE
:103DC00000232846C2E90033936038BD00F10802A1
:103DD000F6E700F0B1FD0C2303600025284638BD4E
:103DE00000F11802C0E90444EAE700BF024B0146B3
:103DF000186800F00BB800BFD80A0020024B01463B
:103E0000186800F08FBF00BFD80A002001F10B0333
:103E1000162B2DE9F04F074683B023D8102900F266
:103E2000AF8000F0AFFA102518230220BA4E3344B9
:103E30005C68A3F10802944200F05681636838463A
:103E400023F00303D4E902122344CA6091605A6844
:103E5000083442F001025A6000F09AFA204603B09A
:103E6000BDE8F08F002B23F00705C0F28980A9423E
:103E700000F2868000F086FAB5F5FC7FC0F07B8208
:103E80006B0A00F08480042B00F26281AB0903F11D
:103E9000390003F1380EC3009F4E3344A3F1080CE0
:103EA0005C68A44507D10DE0002AE16880F2168124
:103EB0008C450C4606D0636823F003035A1B0F2A77
:103EC000F2DD7046DFF868823469444500F0F28024
:103ED000636823F0030CACEB05030F2B00F3748134
:103EE000002BC6E9048880F26381BCF5007FD6F818
:103EF00004E080F0FF804FEADC0301224FEA5C1C03
:103F0000013302FA0CF256F833104EEA020E06EBB9
:103F1000C302083AC6F804E0C4E9021246F8334086
:103F2000CC6083104FF0010C0CFA03FCF44534D83C
:103F30001CEA0E0F07D120F003004FEA4C0C0430AE
:103F40001CEA0E0FF9D006EBC00A8146D646DEF811
:103F50000C300BE05A681C46DB6822F00302511B50
:103F60000F2900F30181002980F215819E45F1D1CE
:103F700009F101090EF1080E19F0030FE7D158E11C
:103F80000C233B600024204603B0BDE8F08F4FF4C3
:103F9000007340204FF03F0E7EE7B468636823F063
:103FA0000309A945A9EB050302D30F2B00F3858074
:103FB0005A4B08201B6803F1100804EB0903009317
:103FC00000F0C4FC564AA84483461368013305D068
:103FD00008F1FF384342804403EA08084146384666
:103FE00000F098FCB0F1FF3F82464D4A00F0078197
:103FF00004EB0903834200F200814A4B0BF1FF3CC2
:1040000018684044186000F064811168013100F0C4
:104010006C8104EB0902AAEB020202441A601AF056
:104020000702CDE9002300F02781C2F108023846DB
:1040300092445A44D04408EA0C01521A02EA0C0B8A
:10404000594600F067FC421C019B00F06A81A0EB1E
:104050000A0000EB0B08186848F00102B442C6F8E9
:1040600008A05844CAF80420186017D0B9F10F0FFF
:1040700040F23E816168A9F10C024FF0050C22F07C
:10408000070201F0010111430F2A616004EB0201F4
:10409000C1E901CC00F24D81DAF80420224B5446EC
:1040A0001968814238BF1860204B1968814238BFB7
:1040B0001860A6E0D6F804E033E7621945F0010580
:1040C00043F00103083444F8045C3846B26053609E
:1040D00000F05EF9204603B0BDE8F08FA2682344EB
:1040E0003846D1608A60B2E6DC68A3427FF4A6AEAF
:1040F0000230E7E6BCF5206F4FEA5C2276D3142A43
:1041000000F2CD8002F15C035B32DB00F118F35862
:104110000839994211D1A5E0D00600204C0F0020AB
:10412000C40600201C0F0020440F0020480F002070
:10413000D80600209B68994204D05A6822F00302F6
:104140006245F7D8D968C4E902318C60DC60E8E6E2
:10415000142B63D9542B00F2AB802B0B03F16F00AF
:1041600003F16E0EC30097E6D4F808C0384667190D
:1041700045F001056560CCF80C30C3F808C041F08B
:104180000103C6E90477C7E902887B60A1500834BF
:1041900000F0FEF8F7E622443846516841F001018C
:1041A000516054F8082FD3609A6000F0F1F8EAE605
:1041B000A44438460834DCF8043043F00103CCF85A
:1041C000043000F0E5F8DEE6621943F0010145F045
:1041D000010538466560C6E90422C2E902885160DB
:1041E00044F80C30083400F0D3F8CCE64FEA9C12C7
:1041F00002F139033832DB0088E7B44262D0B46898
:10420000626822F00308A845A8EB050302D30F2B30
:104210003FF753AF384600F0BBF8B3E603F15C005C
:1042200003F15B0EC30037E65AF80839534540F0F6
:10423000A08010F0030F00F1FF30F5D1736823EA7E
:104240000C0373604FEA4C0C0CF1FF329A4204D31A
:10425000A3E64FEA4C0C09F104091CEA030FF8D05D
:10426000484670E692104FF0010C0CFA02F24EEA4A
:10427000020EC6F804E066E70AEB0802384602EAD6
:104280000C02ABEB020B0BEA0C0B594600F042FBA5
:10429000431C019B7FF4DBAEDDF800B0DBE6542A63
:1042A0002AD84FEA1C3202F16F036E32DB002DE791
:1042B000B3F5AA7F2AD8EB0B03F1780003F1770E50
:1042C000C300E9E52E4B0BF1FF3C18684044186031
:1042D0009BE61AEA0C0F7FF498AEC844D6F808A003
:1042E00048F00102CAF80420D8E6C2F800A096E619
:1042F0000123CAF804308DE7B2F5AA7F24D84FEA2B
:10430000DC3202F178037732DB00FFE640F25452F0
:10431000934224D8AB0C03F17D0003F17C0EC30063
:10432000BAE5009A4FF0000B083A9044A8EB0A084F
:1043300091E6384604F10801009300F0F3FC009B7D
:10434000D6F808A01868A7E640F254539A420CD851
:104350004FEA9C4202F17D037C32DB00D6E64FF44B
:104360007E737F204FF07E0E96E54FF47E737E22A3
:10437000CCE6736866E7E80805F1080356E500BF78
:104380001C0F0020014800F0DDBA00BF180F00200C
:10439000014800F0D9BA00BF180F0020024B0A46AE
:1043A0000146186800F002B8D80A00202DE9F04F45
:1043B000164683B0002900F09E800C4606F10B05DE
:1043C0008046FFF7DFFF54F8040C162DA4F108090E
:1043D00020F0030762D8102200231546B542C0F032
:1043E000A280002B40F09F80974261DADFF82CB367
:1043F00009EB0701DBF80830D1F804C08B4200F06C
:104400009A802CF001030B445B68DB0768D42CF026
:10441000030C07EB0C03934245DAC30712D454F89C
:10442000083CA9EB030ADAF8043023F003008444C3
:104430000CEB070B5A4540F3018107EB000B5A4583
:1044400040F3D78031464046FFF7E0FC064600289F
:1044500000F02C8154F8043CA0F1080223F0010381
:104460004B44934200F0B4803A1F242A00F2E280C9
:10447000132A00F2B380034622461168196051687E
:10448000596092689A602146404600F04BFC4046D5
:10449000FFF77EFF304603B0BDE8F08F25F007053B
:1044A0002A46EB0F9AE71F46D1E90223D3609A60B0
:1044B000781BD9F8043009EB07020F2803F0010339
:1044C0001FD83B43C9F80430536843F001035360DD
:1044D00026464046FFF75CFF304603B0BDE8F08F4C
:1044E000C307AFD454F8083CA9EB030ADAF8043048
:1044F00023F00300A1E7114603B0BDE8F04FFFF73A
:1045000085BC2B4309EB050140F00100C9F80430DC
:10451000083141F8040C4046536843F001035360EE
:1045200000F000FCD4E70C23C8F800300026304629
:1045300003B0BDE8F08F2CF0030C05F110010CEB7B
:1045400007038B4280F29280C0073FF57BAF54F89F
:10455000083CA9EB030ADAF8043023F00300844492
:104560000CEB070399423FF768AF3A1F5646DAF85B
:104570000C1056F8080F242AC160886000F2B08041
:10458000132A40F2AB8021681B2ACAF80810616820
:10459000CAF80C1000F2AB8008340AF1100221684E
:1045A000116061685160A16891605B1B0AEB0502B4
:1045B000404643F00103CBF808205360DAF804309A
:1045C00003F001032B43CAF80430FFF7E1FE83E751
:1045D00050F8043C23F003031F4469E723681B2AB7
:1045E00003606368436036D804F1080200F10803F1
:1045F00043E73A1F5646DAF80C30242A56F8081FCB
:10460000CB60996022D8132A1ED923681B2ACAF8C6
:1046100008306368CAF80C303CD808340AF110033B
:1046200022681A6062685A60A2689A6034465F46DF
:10463000D1463DE7214600F0A1F824E7D1E9021375
:104640003A1FCB609960D5E73346E9E7214630460B
:1046500000F094F8EAE7A368242A8360E368C36063
:1046600028D004F1100200F1100306E75B1B09EBF0
:1046700005024046264643F00103CBF8082053606C
:1046800054F8043C03F001032B4344F8043CFFF7C7
:104690007FFE21E7A368242ACAF81030E368CAF82D
:1046A000143010D010340AF11803B9E74046FFF770
:1046B0006FFE3BE7236904F11802036163694361FC
:1046C00000F11803D9E623691834CAF8183054F8F1
:1046D000043CCAF81C300AF12003A1E732465EE729
:1046E00021463046019300F049F8019B5DE7A1683F
:1046F000242ACAF81010E168CAF8141003D0103444
:104700000AF118024BE722691834CAF8182054F845
:10471000042CCAF81C200AF1200240E7D006002031
:104720000EB470B59DB000254FF4017221AC1B95FD
:10473000ADF8142054F8046B0290069000F068FA6B
:104740000B4903464FF6FF7032460A910949ADF80E
:104750001600039307932346086802A90E95139544
:10476000019400F015FD1DB0BDE8704003B0704726
:1047700079470010D80A00200020704788420DD9E0
:104780008B1883420AD900EB020C5AB3624613F825
:1047900001CD994202F801CDF9D170470F2A0DD809
:1047A00002F1FF3CF2B10CF1010C431E8C4411F8F4
:1047B000012B614503F8012FF9D1704740EA01034D
:1047C0009B07F0B50C460ED002F1FF3C03460CF1FE
:1047D000010C013B8C4411F8012B614503F8012FBA
:1047E000F9D1F0BD7047A2F1100501F1200E01F1E1
:1047F000100300F1100C25F00F05AE4453F8106CB7
:1048000010330CF1100C4CF8206C53F81C6C4CF865
:104810001C6C53F8186C73454CF8186C53F8146CF6
:104820004CF8146CEAD101EB050C12F00C0F0544A6
:104830000CF1100105F1100302F00F050E4618D01F
:10484000043DA0EB040E25F00304A4440CF1140C69
:104850000F6801EB0E0504312F606145F8D1043477
:1048600002F00302A119234402F1FF3C002AAED159
:10487000F0BD2A46F8E700BF830730B546D084185C
:10488000844604E003F8011B9D0704D09C46A44520
:104890006346F7D130BD013A0244A2EB0C02032A71
:1048A00029D9CCB20F2A04EB042404EB04442FD9F9
:1048B000A2F1100C03F110052CF00F0CAC44C3E96D
:1048C0000044C3E9024410336345F8D112F00C0FE1
:1048D00002F00F0E18D02EF0030CAEF104051A46AC
:1048E0009C4442F8044B6245FBD125F00304043399
:1048F0000EF003022344002ACCD0C9B21A4403F8B4
:10490000011B9342FBD130BD7246F4E70346C6E774
:104910009646E0E738B50022064D044608462A6070
:10492000FEF78EFF431C00D038BD2B68002BFBD058
:10493000236038BDE4100020014B1868704700BFA9
:10494000D80A0020704700BF704700BF082802D176
:104950004FF48050704708B5FFF7EEFF162203466C
:104960004FF0FF301A6008BD80EA010C1CF0030F05
:1049700037D110F0030C20F0030021F0030150F8B0
:10498000042B08BF51F8043B0ED08CF0030C6FF0E1
:104990007F434FEACC0C23FA0CFC51F8043B42EA6B
:1049A0000C0243EA0C0300BFA2F1013C9A4201BF92
:1049B0002CEA020C1CF0803F50F8042B51F8043B09
:1049C000F2D04FEA02604FEA1222012828BFB0EB72
:1049D000036F08BF1B0AF4D003F0FF03000EC01AD8
:1049E000704710F0030F0AD010F8012B11F8013BAB
:1049F000012A28BF9A42F4D0A2EB030070474DF879
:104A0000045D50F8042B01F0030521F0030151F877
:104A1000043B022D26D04DD822F07F45B5EB132F55
:104A2000A2F1013C2CEA020C0DD11CF0803C08BF25
:104A300051F8043B0AD185EA0205B5EB036F0CD1AE
:104A400050F8042BE8E74FEA13235BE03CF07F4C7F
:104A500054D10B784FEA126554E04FEA126503F027
:104A6000FF034FE04FEA0245A2F1013C4FEA154532
:104A70002CEA020CB5EB134F18D11CF0803C08BF98
:104A800051F8043B07D185EA0205B5EB034F09D184
:104A900050F8042BE6E75FEA0C4C2FD10B884FEA65
:104AA00012452FE04FEA03434FEA12454FEA134302
:104AB00028E000BF02F0FF05B5EB136FA2F1013C47
:104AC0002CEA020C0DD11CF0803C08BF51F8043BCD
:104AD0000AD185EA0205B5EB032F0AD150F8042B61
:104AE000E8E74FEA13630DE012F0FF0F06D051F82C
:104AF000043B4FEA122523F07F4303E04FF0000010
:104B000020BC704705F0FF0203F0FF00012828BF1A
:104B1000904204BF2D0A1B0AF4D0A2EB000020BC77
:104B2000704700BF844641EA000313F0030349D1F4
:104B3000403A23D30B6803604B6843608B68836003
:104B4000CB68C3600B6903614B6943618B69836107
:104B5000CB69C3610B6A03624B6A43628B6A8362EF
:104B6000CB6AC3620B6B03634B6B43638B6B8363D7
:104B7000CB6BC36340304031403ADBD230320BD391
:104B80000B6803604B6843608B688360CB68C360CD
:104B900010301031103AF3D20C3205D351F8043BE7
:104BA00040F8043B043AF9D2043208D0D2071CBFC3
:104BB00011F8013B00F8013B01D30B8803806046EC
:104BC000704700BF082A13D38B07B1D010F003033E
:104BD000AED0C3F10403D21ADB071CBF11F8013BAE
:104BE00000F8013BA4D331F8023B20F8023B9FE7D9
:104BF000043AD9D3013A11F8013B00F8013BF9D24C
:104C00000B7803704B7843708B78837060467047E5
:104C100020F0030110F00300C0F1000051F8043B44
:104C200000F1040C4FEACC0C6FF000021CBF22FA1A
:104C30000CF213434FF0010C4CEA0C2C4CEA0C4CD8
:104C4000A3EB0C0222EA030212EACC1204BF51F8D1
:104C5000043B0430F4D0C2F1000102EA0102B2FACE
:104C600082F2C2F11F0200EBD20070472DE9F84337
:104C70000646DFF8AC8008208946FFF767FE054648
:104C80003046FFF77FFBD8F808305F6827F003074E
:104C9000A7F11104A4EB09042C44B4FBF5F4013C86
:104CA00005FB04F4A54208DC00213046FFF732FE84
:104CB000D8F808303B44984205D03046FFF768FBEF
:104CC0000020BDE8F88361423046FFF723FE013043
:104CD0000FD03F1B104AD8F80830304647F0010784
:104CE0005F6013681B1B1360FFF752FB0120BDE8D8
:104CF000F88300213046FFF70DFED8F80820831A0C
:104D00000F2BDADD43F0010303495360034B1B68AB
:104D1000C01A0860D1E700BF1C0F0020C4060020A5
:104D2000D006002000295AD0F8B50C460746FFF7F8
:104D300029FB734D54F804CCA4F10802A8682CF0A8
:104D400001030CF0010ED1184E68884226F00306CC
:104D50007CD088194E60406800F00100BEF1000F61
:104D60002ED154F8084C05F1080C121B234494680A
:104D7000644560D0D2F80CE0C4F80CE0CEF80840EE
:104D800000287DD043F0010050600B60B3F5007F38
:104D90002ED25809D90801238340686801310343A2
:104DA00055F831006B6005EBC103083BC2E9020313
:104DB00045F83120C2603846BDE8F840FFF7E8BA50
:104DC00070B9334405F1080C886843F0010460456C
:104DD0006ED0C968C16088605460D350D6E7704710
:104DE0004CF00101B3F5007F44F8041CD350D0D33C
:104DF000B3F5206F4FEA532144D2990901F13900EC
:104E000001F13804C100681869580838884203D194
:104E100055E08968884204D04C6824F003049C4221
:104E2000F7D8C868C2E9021082603846CA60BDE897
:104E3000F840FFF7ADBA80BB1E44D1E90213CB6046
:104E4000996046F0010353609651B4E71E44BEF1E9
:104E5000000F07D154F8083CD21A1E44D2E90213BD
:104E6000CB60996046F001035360264BAA601B6833
:104E7000B342A0D8244B38461968FFF7F7FE9AE7EB
:104E80003344A1E714290DD954291FD8190B01F176
:104E90006F0001F16E04C100B5E743F001005060FE
:104EA0000B6088E701F15C0001F15B04C100AAE737
:104EB000C5E90422C2E902CC5460D3507BE7A410B8
:104EC0000123A3406C6823436B60ABE7B1F5AA7F75
:104ED00006D8D90B01F1780001F17704C10092E7FF
:104EE00040F25450814206D8990C01F17D0001F145
:104EF0007C04C10087E74FF47E717E2483E700BF06
:104F0000D0060020C80600204C0F00202DE9F047F5
:104F100007460E464548354616F801EB10F80EC018
:104F20001CF0080CF7D1BEF12D0F63D0BEF12B0F92
:104F30003AD0644633F010003ED04FF0FF389A4626
:104F4000B8FBF3F803FB08F96FEA090900252846C6
:104F50000EE0AEF1370C63451DDD013504D0404550
:104F600002D834D1CC4532DD4FF0FF3516F801EBD5
:104F7000AEF1300CBCF1090FEDD9AEF1410CBCF132
:104F8000190FE6D9AEF1610CBCF1190F03D8AEF1DF
:104F9000570C6345E1DC6B1C25D004B140420AB1DB
:104FA00035BB1160BDE8F08733F0100096F800E0E3
:104FB000644605F10206C0D1BEF1300F1FD05BB9C7
:104FC0000A234FF00509DFF868809A46BEE70AFB1E
:104FD00000C00125CAE70BB310234FF00F096FF093
:104FE00070489A46B2E7222328463B60002AD9D06F
:104FF000711ED6E796F800E00124AE1C9AE73078DF
:1050000000F0DF005828E6D1102396F801E04FF0B9
:105010000F0902366FF070489A4697E708234FF061
:1050200007096FF060489A4690E700BF519D001055
:1050300099999919FFF76ABF38B54B1C1AD0938913
:1050400014465268CDB223F02003A381236BA3B191
:10505000636B934209DD23685A1E226003F8015CEA
:10506000636801336360284638BD214601F050FD76
:105070000028F0D04FF0FF35F5E7236921682BB108
:105080008B4203D211F8013CAB420ED0234604F10F
:105090004000C4E90E120321012220632846616307
:1050A00003F8425FC4E9003238BD01390132C4E976
:1050B0000012D8E710B50C46096B69B104F1400342
:1050C000994201D0FFF72EFE0020E36B206363605E
:1050D00013B1A36B236010BDA289002123694FF097
:1050E000FF3042F020026160A281F3E72DE9F04F2A
:1050F000834685B002FB03F00E9C0193A0B3884663
:105100000646D4E90015A84223D94FF0000904F15E
:10511000400ACDE9020240462A46FFF703FD216816
:10512000236B58464F19A8441946C4F804902760C9
:105130003746761BDBB1534501D0FFF7F3FDE06B3B
:10514000C4F83090606090B1A16BB0420546216018
:10515000E1D332464046FFF7E5FC0198D4E900323E
:10516000921B3344C4E9003205B0BDE8F08FDDE99D
:105170000202A389284443F02003C01BA38100231B
:10518000B0FBF2F02269C4E9002305B0BDE8F08F5E
:105190002DE9F04FADF5377D90468A4602AF4A6E55
:1051A000FB62B1F90C30B8649E0400F11A8143F43B
:1051B000005322F400528B814A660822002107F135
:1051C0005800FFF759FB4FF0000EC7F84C80F3462C
:1051D000C7F834E0C7F820E0C7F838E0C7F840E087
:1051E000C7F824E0984BD3F8E44001F03BFD07F109
:1051F0005802034607F154010092FA6CB86CA047BC
:105200000028C0F2CF80FB6C02460344FB647B6D38
:10521000002B00F0BE80012800F0D380252B52D057
:105220000028DFD0FB6C9E1ADAF804303044751E7B
:105230001A46441E002A16DDDAF80030691C6A7826
:1052400018780133904240F0A480DAF804208C42B0
:10525000CAF8003002F1FF32CAF8042000F0BC8026
:10526000002A0D46E8DC5146B86CFFF723FF002802
:10527000E2D03B6C002B40F087807B6B002B00F072
:10528000B3807B6BDE8818687EB10024051F8146E1
:10529000A04655F8043F01341868FCF72BFF2B6833
:1052A000B442C3F80080F4D148464FF0FF333B646A
:1052B00008B1FCF71FFF386C07F53577BD46BDE830
:1052C000F08F012002460024FD6CA1462978A1F14F
:1052D00025036E1C552B5CD8DFE813F0A5035B009B
:1052E0005B005B005B0047035B005B005B005B00F7
:1052F0005B00BA00BA00BA00BA00BA00BA00BA003D
:10530000BA00BA00BA005B005B005B005B005B00A8
:105310005B005B00C6005B006E013903C600C6007F
:10532000C6005B005B005B005B008F005B005B0006
:105330004F035B005B005B0035025B005B005B00C2
:105340005B00FB005B005B003F025B005B005B00FF
:105350005B005B00C6005B005D035001C600C60039
:10536000C600560161018F005B002E032802080170
:105370001B012E015B005B0027018A003C015B00E2
:105380005B00FB005B008A00BAF80C305A063FF560
:1053900074AF7B6B002B8ED07B6B18683B6C01333A
:1053A00086D16EE74FF6FD730822002107F1580001
:1053B0007B65FFF761FAFB6C0133FB647B6D002BAF
:1053C000E7D0224AD25C14071ED4252B3FF479AFD4
:1053D000FB6C01205E1E27E702355D44A5EB060B42
:1053E00000E795047FF5E9AE4FF0FF333B6462E7D9
:1053F0002307CED16978354669E72107C9D1697895
:1054000044F00204354662E7DAF80420BC6C11E08F
:10541000DAF800300D491A7801338A5C10077FF5FD
:10542000E1AEDAF804200BF1010BCAF80030013AC2
:10543000CAF80420002AEBDC51462046FFF73AFE6A
:105440000028E5D0CEE600BF200C0020519D0010C2
:1054500014F08F0F9DD109EB890901EB4909697897
:105460003546A9F1300932E7DAF804303E63042604
:10547000002B7BDDDAF80020A94D1378EB5C1807D0
:105480001FD5D7F8488005E0CAF800201378EB5CF8
:10549000190716D5DAF804300BF1010B0132013B84
:1054A000002BCAF80430EFDC51464046FFF702FEFD
:1054B00000287FF4DEAEDAF800201378EB5C1907E1
:1054C000E8D4033E012E01F28B80DFE816F0CF0214
:1054D0008003DAF8043044F400743E63002B32DDBC
:1054E000904B03267B621023BB63C3E7E1063E6358
:1054F00000F11381FA6A52F8043BFA62220700F1C4
:10550000AB87660741F15E80A3F800B03B6BFB649C
:1055100068E6DAF804303E630326002B814B7B6299
:105520004FF00803BB63A5DC20E0DAF804303E63EB
:105530000226002B9EDC19E0DAF8043044F40874EB
:105540003E63002BCCDC5146B86CFFF7B3FD00285E
:10555000C6D08EE6DAF804303E63002B714B7B62D6
:105560004FF00A034FF00306BB6383DC5146B86C6F
:10557000FFF7A0FD00283FF47DAF7AE6DAF80430AB
:105580003E63002B684BEAE723077FF402AF69789C
:10559000682900F0328744F00404354697E6DAF8CB
:1055A00004303E630326002B5F4B7B624FF0000309
:1055B000BB633FF75FAFD9E7DAF8043044F041044A
:1055C0003E63002B40F39B874D46012D38BF0125DC
:1055D00014F01003FB6440F07186FB6A53F8042B4F
:1055E000FB622306FA6140F17E87002A3FF4D1AEC8
:1055F0008020FCF75BFD0646002801F01D80FB695A
:1056000018607B6BDC88B3F80480444580F08A86A0
:105610001868FB69B14640F8243001347B6BDC80AC
:105620000123BB6220237B64C7F83C90002407F56C
:10563000B878D7F8209001F015FBA0423FF419AEDE
:10564000B9F1030FDAE9002112F8010B01F1FF3182
:1056500008F8040004F10104CAF80410CAF8002094
:1056600002D1BB6E042B05D00822002107F168008F
:10567000FFF702F907F168034246314600932346DB
:10568000B86C02F073FEB0F1FF3F81463FF4F1AD1C
:10569000002840F0CB81FB6CA344013DB3B93360DB
:1056A000F86B7B6C341AB3EBA40F0ED8BA6A62B1F4
:1056B000D900FCF70DFDF863002800F0BD877B6C76
:1056C00006195B007B64FB6918600436DAF8042075
:1056D000002A09DD75B10024ADE7FB6C002BDFD09B
:1056E000DAF80420002AF6DC5146B86CFFF7E2FC39
:1056F0000028EFD0C7F82090D7F83C90A6EB09011E
:105700007B6CB3EBA10F03D9BB6A002B40F0C386BF
:10571000FB6C13B93B6C01333B643B6BFB6461E591
:10572000519D001035500010ED7E001014F08F03D5
:105730007FF42FAE796B002900F0BC86697844F0C5
:1057400080043546C3E5DAF804303E63002B40F3AD
:10575000DF8644F0010402268CE6314607F1700032
:1057600001F086F9DAF80430F864002B40F3D986AA
:10577000B9F1000F04F0100308BF4FF0FF3914F027
:105780000105BB6200F08084002B40F09F85FB6A1E
:10579000210653F8042B3A61FB6240F19C86002AF3
:1057A0003FF4F7AD8020FCF781FC0646002800F0AE
:1057B00043873B6918607B6BDC889D88AC4280F036
:1057C000C78518683B690122FE6140F82430013426
:1057D0007B6BDC802023C7E90523C7F83CB000249D
:1057E000CB4607F5B878B1463D6A01F03BFAA042D6
:1057F0003FF43FAD032D07F16006DAE9003213F8FC
:10580000011B02F1FF32CAF8003004F10103CAF8AB
:10581000042008F804107B6402D13368042B04D000
:10582000082200213046FFF727F8009642467B6C9D
:105830004946B86C02F09AFD431C05463FF419AD89
:10584000002840F004810346C9F800000822002126
:1058500007F168003B63FFF70FF83B6B07F150015E
:10586000B86C1A467E4BD3F8E0301C4607F168034B
:10587000A04701280CBF97F85030002307F17002B1
:10588000D35C002B00F07186FB6B032D7A6C134404
:10589000FB6324D0BB6A0BF1FF3BBBB909F10409E0
:1058A000F869BE69A9EB0004B6EBA40F0ED87B69BA
:1058B00063B1F100FCF70CFCF861002800F0BC8635
:1058C000720000EB0409BA613A691060DAF804303A
:1058D000002B0EDDBBF1000F11D0002485E73368EB
:1058E000042BD7D1BB6A002BD8D0DAF80430002BB8
:1058F000F3DC5146B86CFFF7DDFB0028EAD0D7F89F
:105900003CB04E463D62BB6A002B7FF46BAC33600B
:10591000FB69BA69F11A8B1001339A4208D97B6985
:1059200033B13C6904312068FCF7D2FB00B1206040
:105930003B6C01333B6455E421077FF42AAD697861
:105940006C2900F0548544F001043546BFE4DAF8D0
:10595000043044F001043E63002B40F3FD85414BCD
:1059600003267B620A23BB6384E559EA04097FF4BA
:1059700010AD697810243546A9E4DAF8043044F013
:1059800001043E63002B40F3DE85374B03267B6228
:105990000823BB636EE5DAF804303E63002B40F366
:1059A000C9854D46012D38BF012514F0010340F093
:1059B0002A85E60600F19384FB6A200653F8046BFF
:1059C000FB6240F13784002E3FF4E3AC2846FCF73D
:1059D0006DFB044600283FF450AC7B6B3060B3F89D
:1059E00006809A88904580F03B8518687B6B21463D
:1059F00040F8286008F101080122A3F806802B4630
:105A0000CDF800A0B86CFFF771FB0446002800F049
:105A10004F86A84205D201463068FCF759FB00B119
:105A20003060A344B5E3FE64FFF7FABB10F1020F48
:105A300000F005830328A34403D1BA6E042A3FF47F
:105A40004CAEFB6C013D002B3FF42AAE3EE6841CBD
:105A500000F00A83D9F80030581C7FF4F7AE0DE748
:105A6000200C0020ED7E00103550001009F1FF33AE
:105A7000B3F5AE7F40F200836FF4AE7209EB02081B
:105A800040F25D1907F5B87300225646C7F84C80FE
:105A900044F458641D46D7F838809246BB62326899
:105AA0001078A0F12B034D2B61D8DFE813F08F02A3
:105AB00060008F0260006000A502A501A501A5019C
:105AC000A501A501A501A5017A027A026000600086
:105AD000600060006000600060004E004E004E00FC
